{
	"TimeLockedGiftVault.sol": {
		"TimeLockedGiftVault": {
			"abi": [
				{
					"anonymous": false,
					"inputs": [
						{
							"indexed": true,
							"internalType": "address",
							"name": "to",
							"type": "address"
						},
						{
							"indexed": false,
							"internalType": "uint256",
							"name": "amount",
							"type": "uint256"
						}
					],
					"name": "GiftClaimed",
					"type": "event"
				},
				{
					"anonymous": false,
					"inputs": [
						{
							"indexed": true,
							"internalType": "address",
							"name": "from",
							"type": "address"
						},
						{
							"indexed": true,
							"internalType": "address",
							"name": "to",
							"type": "address"
						},
						{
							"indexed": false,
							"internalType": "uint256",
							"name": "amount",
							"type": "uint256"
						},
						{
							"indexed": false,
							"internalType": "uint256",
							"name": "unlockTimestamp",
							"type": "uint256"
						}
					],
					"name": "GiftCreated",
					"type": "event"
				},
				{
					"inputs": [],
					"name": "claimGifts",
					"outputs": [],
					"stateMutability": "nonpayable",
					"type": "function"
				},
				{
					"inputs": [
						{
							"internalType": "address",
							"name": "_recipient",
							"type": "address"
						},
						{
							"internalType": "uint256",
							"name": "_unlockTimestamp",
							"type": "uint256"
						}
					],
					"name": "createGift",
					"outputs": [],
					"stateMutability": "payable",
					"type": "function"
				},
				{
					"inputs": [
						{
							"internalType": "address",
							"name": "_recipient",
							"type": "address"
						}
					],
					"name": "getPendingGifts",
					"outputs": [
						{
							"components": [
								{
									"internalType": "uint256",
									"name": "amount",
									"type": "uint256"
								},
								{
									"internalType": "uint256",
									"name": "unlockTimestamp",
									"type": "uint256"
								},
								{
									"internalType": "bool",
									"name": "claimed",
									"type": "bool"
								}
							],
							"internalType": "struct TimeLockedGiftVault.Gift[]",
							"name": "",
							"type": "tuple[]"
						}
					],
					"stateMutability": "view",
					"type": "function"
				},
				{
					"inputs": [
						{
							"internalType": "address",
							"name": "",
							"type": "address"
						},
						{
							"internalType": "uint256",
							"name": "",
							"type": "uint256"
						}
					],
					"name": "gifts",
					"outputs": [
						{
							"internalType": "uint256",
							"name": "amount",
							"type": "uint256"
						},
						{
							"internalType": "uint256",
							"name": "unlockTimestamp",
							"type": "uint256"
						},
						{
							"internalType": "bool",
							"name": "claimed",
							"type": "bool"
						}
					],
					"stateMutability": "view",
					"type": "function"
				}
			],
			"devdoc": {
				"kind": "dev",
				"methods": {},
				"version": 1
			},
			"evm": {
				"assembly": "    /* \"TimeLockedGiftVault.sol\":61:1924  contract TimeLockedGiftVault {... */\n  mstore(0x40, 0x80)\n  callvalue\n  dup1\n  iszero\n  tag_1\n  jumpi\n  revert(0x00, 0x00)\ntag_1:\n  pop\n  dataSize(sub_0)\n  dup1\n  dataOffset(sub_0)\n  0x00\n  codecopy\n  0x00\n  return\nstop\n\nsub_0: assembly {\n        /* \"TimeLockedGiftVault.sol\":61:1924  contract TimeLockedGiftVault {... */\n      mstore(0x40, 0x80)\n      jumpi(tag_1, lt(calldatasize, 0x04))\n      shr(0xe0, calldataload(0x00))\n      dup1\n      0x0b1759df\n      eq\n      tag_2\n      jumpi\n      dup1\n      0xad967663\n      eq\n      tag_3\n      jumpi\n      dup1\n      0xb63b65d6\n      eq\n      tag_4\n      jumpi\n      dup1\n      0xe30c3920\n      eq\n      tag_5\n      jumpi\n    tag_1:\n      revert(0x00, 0x00)\n        /* \"TimeLockedGiftVault.sol\":517:1088  function createGift(address _recipient, uint256 _unlockTimestamp) external payable {... */\n    tag_2:\n      tag_6\n      tag_7\n      calldatasize\n      0x04\n      tag_8\n      jump\t// in\n    tag_7:\n      tag_9\n      jump\t// in\n    tag_6:\n      stop\n        /* \"TimeLockedGiftVault.sol\":1795:1921  function getPendingGifts(address _recipient) external view returns (Gift[] memory) {... */\n    tag_3:\n      callvalue\n      dup1\n      iszero\n      tag_10\n      jumpi\n      revert(0x00, 0x00)\n    tag_10:\n      pop\n      tag_11\n      tag_12\n      calldatasize\n      0x04\n      tag_13\n      jump\t// in\n    tag_12:\n      tag_14\n      jump\t// in\n    tag_11:\n      mload(0x40)\n      tag_15\n      swap2\n      swap1\n      tag_16\n      jump\t// in\n    tag_15:\n      mload(0x40)\n      dup1\n      swap2\n      sub\n      swap1\n      return\n        /* \"TimeLockedGiftVault.sol\":254:293  mapping(address => Gift[]) public gifts */\n    tag_4:\n      callvalue\n      dup1\n      iszero\n      tag_17\n      jumpi\n      revert(0x00, 0x00)\n    tag_17:\n      pop\n      tag_18\n      tag_19\n      calldatasize\n      0x04\n      tag_8\n      jump\t// in\n    tag_19:\n      tag_20\n      jump\t// in\n    tag_18:\n      0x40\n      dup1\n      mload\n        /* \"#utility.yul\":1648:1673   */\n      swap4\n      dup5\n      mstore\n        /* \"#utility.yul\":1704:1706   */\n      0x20\n        /* \"#utility.yul\":1689:1707   */\n      dup5\n      add\n        /* \"#utility.yul\":1682:1716   */\n      swap3\n      swap1\n      swap3\n      mstore\n        /* \"#utility.yul\":1759:1773   */\n      iszero\n        /* \"#utility.yul\":1752:1774   */\n      iszero\n        /* \"#utility.yul\":1732:1750   */\n      swap1\n      dup3\n      add\n        /* \"#utility.yul\":1725:1775   */\n      mstore\n        /* \"#utility.yul\":1636:1638   */\n      0x60\n        /* \"#utility.yul\":1621:1639   */\n      add\n        /* \"TimeLockedGiftVault.sol\":254:293  mapping(address => Gift[]) public gifts */\n      tag_15\n        /* \"#utility.yul\":1452:1781   */\n      jump\n        /* \"TimeLockedGiftVault.sol\":1129:1723  function claimGifts() external {... */\n    tag_5:\n      callvalue\n      dup1\n      iszero\n      tag_23\n      jumpi\n      revert(0x00, 0x00)\n    tag_23:\n      pop\n      tag_6\n      tag_25\n      jump\t// in\n        /* \"TimeLockedGiftVault.sol\":517:1088  function createGift(address _recipient, uint256 _unlockTimestamp) external payable {... */\n    tag_9:\n        /* \"TimeLockedGiftVault.sol\":631:632  0 */\n      0x00\n        /* \"TimeLockedGiftVault.sol\":619:628  msg.value */\n      callvalue\n        /* \"TimeLockedGiftVault.sol\":619:632  msg.value > 0 */\n      gt\n        /* \"TimeLockedGiftVault.sol\":611:671  require(msg.value > 0, \"Gift amount must be greater than 0\") */\n      tag_27\n      jumpi\n      mload(0x40)\n      shl(0xe5, 0x461bcd)\n      dup2\n      mstore\n        /* \"#utility.yul\":1988:1990   */\n      0x20\n        /* \"TimeLockedGiftVault.sol\":611:671  require(msg.value > 0, \"Gift amount must be greater than 0\") */\n      0x04\n      dup3\n      add\n        /* \"#utility.yul\":1970:1991   */\n      mstore\n        /* \"#utility.yul\":2027:2029   */\n      0x22\n        /* \"#utility.yul\":2007:2025   */\n      0x24\n      dup3\n      add\n        /* \"#utility.yul\":2000:2030   */\n      mstore\n        /* \"#utility.yul\":2066:2100   */\n      0x4769667420616d6f756e74206d7573742062652067726561746572207468616e\n        /* \"#utility.yul\":2046:2064   */\n      0x44\n      dup3\n      add\n        /* \"#utility.yul\":2039:2101   */\n      mstore\n      shl(0xf4, 0x0203)\n        /* \"#utility.yul\":2117:2135   */\n      0x64\n      dup3\n      add\n        /* \"#utility.yul\":2110:2142   */\n      mstore\n        /* \"#utility.yul\":2159:2178   */\n      0x84\n      add\n        /* \"TimeLockedGiftVault.sol\":611:671  require(msg.value > 0, \"Gift amount must be greater than 0\") */\n    tag_28:\n      mload(0x40)\n      dup1\n      swap2\n      sub\n      swap1\n      revert\n    tag_27:\n      sub(shl(0xa0, 0x01), 0x01)\n        /* \"TimeLockedGiftVault.sol\":690:714  _recipient != address(0) */\n      dup3\n      and\n        /* \"TimeLockedGiftVault.sol\":682:744  require(_recipient != address(0), \"Invalid recipient address\") */\n      tag_30\n      jumpi\n      mload(0x40)\n      shl(0xe5, 0x461bcd)\n      dup2\n      mstore\n        /* \"#utility.yul\":2391:2393   */\n      0x20\n        /* \"TimeLockedGiftVault.sol\":682:744  require(_recipient != address(0), \"Invalid recipient address\") */\n      0x04\n      dup3\n      add\n        /* \"#utility.yul\":2373:2394   */\n      mstore\n        /* \"#utility.yul\":2430:2432   */\n      0x19\n        /* \"#utility.yul\":2410:2428   */\n      0x24\n      dup3\n      add\n        /* \"#utility.yul\":2403:2433   */\n      mstore\n      shl(0x38, 0x496e76616c696420726563697069656e742061646472657373)\n        /* \"#utility.yul\":2449:2467   */\n      0x44\n      dup3\n      add\n        /* \"#utility.yul\":2442:2497   */\n      mstore\n        /* \"#utility.yul\":2514:2532   */\n      0x64\n      add\n        /* \"TimeLockedGiftVault.sol\":682:744  require(_recipient != address(0), \"Invalid recipient address\") */\n      tag_28\n        /* \"#utility.yul\":2189:2538   */\n      jump\n        /* \"TimeLockedGiftVault.sol\":682:744  require(_recipient != address(0), \"Invalid recipient address\") */\n    tag_30:\n        /* \"TimeLockedGiftVault.sol\":782:797  block.timestamp */\n      timestamp\n        /* \"TimeLockedGiftVault.sol\":763:779  _unlockTimestamp */\n      dup2\n        /* \"TimeLockedGiftVault.sol\":763:797  _unlockTimestamp > block.timestamp */\n      gt\n        /* \"TimeLockedGiftVault.sol\":755:835  require(_unlockTimestamp > block.timestamp, \"Unlock time must be in the future\") */\n      tag_33\n      jumpi\n      mload(0x40)\n      shl(0xe5, 0x461bcd)\n      dup2\n      mstore\n        /* \"#utility.yul\":2745:2747   */\n      0x20\n        /* \"TimeLockedGiftVault.sol\":755:835  require(_unlockTimestamp > block.timestamp, \"Unlock time must be in the future\") */\n      0x04\n      dup3\n      add\n        /* \"#utility.yul\":2727:2748   */\n      mstore\n        /* \"#utility.yul\":2784:2786   */\n      0x21\n        /* \"#utility.yul\":2764:2782   */\n      0x24\n      dup3\n      add\n        /* \"#utility.yul\":2757:2787   */\n      mstore\n        /* \"#utility.yul\":2823:2857   */\n      0x556e6c6f636b2074696d65206d75737420626520696e20746865206675747572\n        /* \"#utility.yul\":2803:2821   */\n      0x44\n      dup3\n      add\n        /* \"#utility.yul\":2796:2858   */\n      mstore\n      shl(0xf8, 0x65)\n        /* \"#utility.yul\":2874:2892   */\n      0x64\n      dup3\n      add\n        /* \"#utility.yul\":2867:2898   */\n      mstore\n        /* \"#utility.yul\":2915:2934   */\n      0x84\n      add\n        /* \"TimeLockedGiftVault.sol\":755:835  require(_unlockTimestamp > block.timestamp, \"Unlock time must be in the future\") */\n      tag_28\n        /* \"#utility.yul\":2543:2940   */\n      jump\n        /* \"TimeLockedGiftVault.sol\":755:835  require(_unlockTimestamp > block.timestamp, \"Unlock time must be in the future\") */\n    tag_33:\n      sub(shl(0xa0, 0x01), 0x01)\n        /* \"TimeLockedGiftVault.sol\":848:865  gifts[_recipient] */\n      dup3\n      and\n        /* \"TimeLockedGiftVault.sol\":848:853  gifts */\n      0x00\n        /* \"TimeLockedGiftVault.sol\":848:865  gifts[_recipient] */\n      dup2\n      dup2\n      mstore\n      0x20\n      dup2\n      dup2\n      mstore\n      0x40\n      dup1\n      dup4\n      keccak256\n        /* \"TimeLockedGiftVault.sol\":871:997  Gift({... */\n      dup2\n      mload\n      0x60\n      dup2\n      add\n      dup4\n      mstore\n        /* \"TimeLockedGiftVault.sol\":899:908  msg.value */\n      callvalue\n        /* \"TimeLockedGiftVault.sol\":871:997  Gift({... */\n      dup1\n      dup3\n      mstore\n      dup2\n      dup6\n      add\n      dup9\n      dup2\n      mstore\n      dup3\n      dup6\n      add\n      dup8\n      dup2\n      mstore\n        /* \"TimeLockedGiftVault.sol\":848:998  gifts[_recipient].push(Gift({... */\n      dup5\n      sload\n        /* \"TimeLockedGiftVault.sol\":871:997  Gift({... */\n      0x01\n        /* \"TimeLockedGiftVault.sol\":848:998  gifts[_recipient].push(Gift({... */\n      dup1\n      dup3\n      add\n      dup8\n      sstore\n      swap6\n      dup10\n      mstore\n      swap8\n      dup8\n      swap1\n      keccak256\n      swap4\n      mload\n      0x03\n      swap1\n      swap9\n      mul\n      swap1\n      swap4\n      add\n      swap7\n      dup8\n      sstore\n      mload\n      swap3\n      dup7\n      add\n      swap3\n      swap1\n      swap3\n      sstore\n      mload\n      0x02\n      swap1\n      swap5\n      add\n      dup1\n      sload\n      not(0xff)\n      and\n      swap5\n      iszero\n      iszero\n      swap5\n      swap1\n      swap5\n      or\n      swap1\n      swap4\n      sstore\n        /* \"TimeLockedGiftVault.sol\":1016:1080  GiftCreated(msg.sender, _recipient, msg.value, _unlockTimestamp) */\n      dup1\n      mload\n        /* \"#utility.yul\":3119:3144   */\n      swap3\n      dup4\n      mstore\n        /* \"#utility.yul\":3160:3178   */\n      swap1\n      dup3\n      add\n        /* \"#utility.yul\":3153:3187   */\n      dup5\n      swap1\n      mstore\n        /* \"TimeLockedGiftVault.sol\":1028:1038  msg.sender */\n      caller\n      swap2\n        /* \"TimeLockedGiftVault.sol\":1016:1080  GiftCreated(msg.sender, _recipient, msg.value, _unlockTimestamp) */\n      0x2e9b96c8a0db9b6bf4343a8b9f1b44eab566c981df34b57ab3fc844331643232\n      swap2\n        /* \"#utility.yul\":3092:3110   */\n      add\n        /* \"TimeLockedGiftVault.sol\":1016:1080  GiftCreated(msg.sender, _recipient, msg.value, _unlockTimestamp) */\n      mload(0x40)\n      dup1\n      swap2\n      sub\n      swap1\n      log3\n        /* \"TimeLockedGiftVault.sol\":517:1088  function createGift(address _recipient, uint256 _unlockTimestamp) external payable {... */\n      pop\n      pop\n      jump\t// out\n        /* \"TimeLockedGiftVault.sol\":1795:1921  function getPendingGifts(address _recipient) external view returns (Gift[] memory) {... */\n    tag_14:\n      sub(shl(0xa0, 0x01), 0x01)\n        /* \"TimeLockedGiftVault.sol\":1896:1913  gifts[_recipient] */\n      dup2\n      and\n        /* \"TimeLockedGiftVault.sol\":1896:1901  gifts */\n      0x00\n        /* \"TimeLockedGiftVault.sol\":1896:1913  gifts[_recipient] */\n      swap1\n      dup2\n      mstore\n      0x20\n      dup2\n      dup2\n      mstore\n      0x40\n      dup1\n      dup4\n      keccak256\n        /* \"TimeLockedGiftVault.sol\":1889:1913  return gifts[_recipient] */\n      dup1\n      sload\n      dup3\n      mload\n      dup2\n      dup6\n      mul\n      dup2\n      add\n      dup6\n      add\n      swap1\n      swap4\n      mstore\n      dup1\n      dup4\n      mstore\n        /* \"TimeLockedGiftVault.sol\":1863:1876  Gift[] memory */\n      0x60\n      swap5\n        /* \"TimeLockedGiftVault.sol\":1889:1913  return gifts[_recipient] */\n      swap3\n      swap4\n        /* \"TimeLockedGiftVault.sol\":1896:1913  gifts[_recipient] */\n      swap2\n      swap3\n        /* \"TimeLockedGiftVault.sol\":1889:1913  return gifts[_recipient] */\n      swap1\n      swap2\n      dup5\n      add\n    tag_40:\n      dup3\n      dup3\n      lt\n      iszero\n      tag_41\n      jumpi\n      0x00\n      dup5\n      dup2\n      mstore\n      0x20\n      swap1\n      dup2\n      swap1\n      keccak256\n      0x40\n      dup1\n      mload\n      0x60\n      dup2\n      add\n      dup3\n      mstore\n      0x03\n      dup7\n      mul\n      swap1\n      swap3\n      add\n      dup1\n      sload\n      dup4\n      mstore\n      0x01\n      dup1\n      dup3\n      add\n      sload\n      dup5\n      dup7\n      add\n      mstore\n      0x02\n      swap1\n      swap2\n      add\n      sload\n      0xff\n      and\n      iszero\n      iszero\n      swap2\n      dup4\n      add\n      swap2\n      swap1\n      swap2\n      mstore\n      swap1\n      dup4\n      mstore\n      swap1\n      swap3\n      add\n      swap2\n      add\n      jump(tag_40)\n    tag_41:\n      pop\n      pop\n      pop\n      pop\n      swap1\n      pop\n        /* \"TimeLockedGiftVault.sol\":1795:1921  function getPendingGifts(address _recipient) external view returns (Gift[] memory) {... */\n      swap2\n      swap1\n      pop\n      jump\t// out\n        /* \"TimeLockedGiftVault.sol\":254:293  mapping(address => Gift[]) public gifts */\n    tag_20:\n      mstore(0x20, 0x00)\n      dup2\n      0x00\n      mstore\n      keccak256(0x00, 0x40)\n      dup2\n      dup2\n      sload\n      dup2\n      lt\n      tag_43\n      jumpi\n      0x00\n      dup1\n      revert\n    tag_43:\n      0x00\n      swap2\n      dup3\n      mstore\n      0x20\n      swap1\n      swap2\n      keccak256\n      0x03\n      swap1\n      swap2\n      mul\n      add\n      dup1\n      sload\n      0x01\n      dup3\n      add\n      sload\n      0x02\n      swap1\n      swap3\n      add\n      sload\n      swap1\n      swap4\n      pop\n      swap1\n      swap2\n      pop\n      0xff\n      and\n      dup4\n      jump\t// out\n        /* \"TimeLockedGiftVault.sol\":1129:1723  function claimGifts() external {... */\n    tag_25:\n        /* \"TimeLockedGiftVault.sol\":1204:1214  msg.sender */\n      caller\n        /* \"TimeLockedGiftVault.sol\":1171:1195  Gift[] storage userGifts */\n      0x00\n        /* \"TimeLockedGiftVault.sol\":1198:1215  gifts[msg.sender] */\n      swap1\n      dup2\n      mstore\n      0x20\n      dup2\n      swap1\n      mstore\n      0x40\n      dup2\n      keccak256\n      swap1\n        /* \"TimeLockedGiftVault.sol\":1171:1195  Gift[] storage userGifts */\n      dup1\n        /* \"TimeLockedGiftVault.sol\":1263:1530  for (uint256 i = 0; i < userGifts.length; i++) {... */\n    tag_46:\n        /* \"TimeLockedGiftVault.sol\":1287:1303  userGifts.length */\n      dup3\n      sload\n        /* \"TimeLockedGiftVault.sol\":1283:1303  i < userGifts.length */\n      dup2\n      lt\n        /* \"TimeLockedGiftVault.sol\":1263:1530  for (uint256 i = 0; i < userGifts.length; i++) {... */\n      iszero\n      tag_47\n      jumpi\n        /* \"TimeLockedGiftVault.sol\":1325:1339  Gift storage g */\n      0x00\n        /* \"TimeLockedGiftVault.sol\":1342:1351  userGifts */\n      dup4\n        /* \"TimeLockedGiftVault.sol\":1352:1353  i */\n      dup3\n        /* \"TimeLockedGiftVault.sol\":1342:1354  userGifts[i] */\n      dup2\n      sload\n      dup2\n      lt\n      tag_50\n      jumpi\n      tag_50\n      tag_51\n      jump\t// in\n    tag_50:\n      0x00\n      swap2\n      dup3\n      mstore\n      0x20\n      swap1\n      swap2\n      keccak256\n      0x03\n      swap1\n      swap2\n      mul\n      add\n        /* \"TimeLockedGiftVault.sol\":1374:1383  g.claimed */\n      0x02\n      dup2\n      add\n      sload\n        /* \"TimeLockedGiftVault.sol\":1342:1354  userGifts[i] */\n      swap1\n      swap2\n      pop\n        /* \"TimeLockedGiftVault.sol\":1374:1383  g.claimed */\n      0xff\n      and\n        /* \"TimeLockedGiftVault.sol\":1373:1383  !g.claimed */\n      iszero\n        /* \"TimeLockedGiftVault.sol\":1373:1423  !g.claimed && block.timestamp >= g.unlockTimestamp */\n      dup1\n      iszero\n      tag_53\n      jumpi\n      pop\n        /* \"TimeLockedGiftVault.sol\":1406:1407  g */\n      dup1\n        /* \"TimeLockedGiftVault.sol\":1406:1423  g.unlockTimestamp */\n      0x01\n      add\n      sload\n        /* \"TimeLockedGiftVault.sol\":1387:1402  block.timestamp */\n      timestamp\n        /* \"TimeLockedGiftVault.sol\":1387:1423  block.timestamp >= g.unlockTimestamp */\n      lt\n      iszero\n        /* \"TimeLockedGiftVault.sol\":1373:1423  !g.claimed && block.timestamp >= g.unlockTimestamp */\n    tag_53:\n        /* \"TimeLockedGiftVault.sol\":1369:1519  if (!g.claimed && block.timestamp >= g.unlockTimestamp) {... */\n      iszero\n      tag_54\n      jumpi\n        /* \"TimeLockedGiftVault.sol\":1460:1468  g.amount */\n      dup1\n      sload\n        /* \"TimeLockedGiftVault.sol\":1444:1468  totalClaimed += g.amount */\n      tag_55\n      swap1\n      dup5\n      tag_56\n      jump\t// in\n    tag_55:\n        /* \"TimeLockedGiftVault.sol\":1487:1496  g.claimed */\n      0x02\n      dup3\n      add\n        /* \"TimeLockedGiftVault.sol\":1487:1503  g.claimed = true */\n      dup1\n      sload\n      not(0xff)\n      and\n        /* \"TimeLockedGiftVault.sol\":1499:1503  true */\n      0x01\n        /* \"TimeLockedGiftVault.sol\":1487:1503  g.claimed = true */\n      or\n      swap1\n      sstore\n        /* \"TimeLockedGiftVault.sol\":1444:1468  totalClaimed += g.amount */\n      swap3\n      pop\n        /* \"TimeLockedGiftVault.sol\":1369:1519  if (!g.claimed && block.timestamp >= g.unlockTimestamp) {... */\n    tag_54:\n      pop\n        /* \"TimeLockedGiftVault.sol\":1305:1308  i++ */\n      0x01\n      add\n        /* \"TimeLockedGiftVault.sol\":1263:1530  for (uint256 i = 0; i < userGifts.length; i++) {... */\n      jump(tag_46)\n    tag_47:\n      pop\n        /* \"TimeLockedGiftVault.sol\":1565:1566  0 */\n      0x00\n        /* \"TimeLockedGiftVault.sol\":1550:1562  totalClaimed */\n      dup2\n        /* \"TimeLockedGiftVault.sol\":1550:1566  totalClaimed > 0 */\n      gt\n        /* \"TimeLockedGiftVault.sol\":1542:1607  require(totalClaimed > 0, \"No unlocked gifts available to claim\") */\n      tag_57\n      jumpi\n      mload(0x40)\n      shl(0xe5, 0x461bcd)\n      dup2\n      mstore\n        /* \"#utility.yul\":3759:3761   */\n      0x20\n        /* \"TimeLockedGiftVault.sol\":1542:1607  require(totalClaimed > 0, \"No unlocked gifts available to claim\") */\n      0x04\n      dup3\n      add\n        /* \"#utility.yul\":3741:3762   */\n      mstore\n        /* \"#utility.yul\":3798:3800   */\n      0x24\n        /* \"#utility.yul\":3778:3796   */\n      dup1\n      dup3\n      add\n        /* \"#utility.yul\":3771:3801   */\n      mstore\n        /* \"#utility.yul\":3837:3871   */\n      0x4e6f20756e6c6f636b656420676966747320617661696c61626c6520746f2063\n        /* \"#utility.yul\":3817:3835   */\n      0x44\n      dup3\n      add\n        /* \"#utility.yul\":3810:3872   */\n      mstore\n      shl(0xe0, 0x6c61696d)\n        /* \"#utility.yul\":3888:3906   */\n      0x64\n      dup3\n      add\n        /* \"#utility.yul\":3881:3915   */\n      mstore\n        /* \"#utility.yul\":3932:3951   */\n      0x84\n      add\n        /* \"TimeLockedGiftVault.sol\":1542:1607  require(totalClaimed > 0, \"No unlocked gifts available to claim\") */\n      tag_28\n        /* \"#utility.yul\":3557:3957   */\n      jump\n        /* \"TimeLockedGiftVault.sol\":1542:1607  require(totalClaimed > 0, \"No unlocked gifts available to claim\") */\n    tag_57:\n        /* \"TimeLockedGiftVault.sol\":1618:1660  payable(msg.sender).transfer(totalClaimed) */\n      mload(0x40)\n        /* \"TimeLockedGiftVault.sol\":1626:1636  msg.sender */\n      caller\n      swap1\n        /* \"TimeLockedGiftVault.sol\":1618:1660  payable(msg.sender).transfer(totalClaimed) */\n      dup3\n      iszero\n      0x08fc\n      mul\n      swap1\n        /* \"TimeLockedGiftVault.sol\":1647:1659  totalClaimed */\n      dup4\n      swap1\n        /* \"TimeLockedGiftVault.sol\":1618:1660  payable(msg.sender).transfer(totalClaimed) */\n      0x00\n      dup2\n      dup2\n      dup2\n        /* \"TimeLockedGiftVault.sol\":1647:1659  totalClaimed */\n      dup6\n        /* \"TimeLockedGiftVault.sol\":1626:1636  msg.sender */\n      dup9\n        /* \"TimeLockedGiftVault.sol\":1618:1660  payable(msg.sender).transfer(totalClaimed) */\n      dup9\n      call\n      swap4\n      pop\n      pop\n      pop\n      pop\n      iszero\n      dup1\n      iszero\n      tag_61\n      jumpi\n      returndatacopy(0x00, 0x00, returndatasize)\n      revert(0x00, returndatasize)\n    tag_61:\n      pop\n        /* \"TimeLockedGiftVault.sol\":1678:1715  GiftClaimed(msg.sender, totalClaimed) */\n      mload(0x40)\n        /* \"#utility.yul\":4108:4133   */\n      dup2\n      dup2\n      mstore\n        /* \"TimeLockedGiftVault.sol\":1690:1700  msg.sender */\n      caller\n      swap1\n        /* \"TimeLockedGiftVault.sol\":1678:1715  GiftClaimed(msg.sender, totalClaimed) */\n      0x63470d7f30c22aa66a80557958389b03c1a5d7d61f31b9bd0642097d2aae3a9a\n      swap1\n        /* \"#utility.yul\":4096:4098   */\n      0x20\n        /* \"#utility.yul\":4081:4099   */\n      add\n        /* \"TimeLockedGiftVault.sol\":1678:1715  GiftClaimed(msg.sender, totalClaimed) */\n      mload(0x40)\n      dup1\n      swap2\n      sub\n      swap1\n      log2\n        /* \"TimeLockedGiftVault.sol\":1160:1723  {... */\n      pop\n      pop\n        /* \"TimeLockedGiftVault.sol\":1129:1723  function claimGifts() external {... */\n      jump\t// out\n        /* \"#utility.yul\":14:187   */\n    tag_64:\n        /* \"#utility.yul\":82:102   */\n      dup1\n      calldataload\n      sub(shl(0xa0, 0x01), 0x01)\n        /* \"#utility.yul\":131:162   */\n      dup2\n      and\n        /* \"#utility.yul\":121:163   */\n      dup2\n      eq\n        /* \"#utility.yul\":111:181   */\n      tag_67\n      jumpi\n        /* \"#utility.yul\":177:178   */\n      0x00\n        /* \"#utility.yul\":174:175   */\n      0x00\n        /* \"#utility.yul\":167:179   */\n      revert\n        /* \"#utility.yul\":111:181   */\n    tag_67:\n        /* \"#utility.yul\":14:187   */\n      swap2\n      swap1\n      pop\n      jump\t// out\n        /* \"#utility.yul\":192:446   */\n    tag_8:\n        /* \"#utility.yul\":260:266   */\n      0x00\n        /* \"#utility.yul\":268:274   */\n      0x00\n        /* \"#utility.yul\":321:323   */\n      0x40\n        /* \"#utility.yul\":309:318   */\n      dup4\n        /* \"#utility.yul\":300:307   */\n      dup6\n        /* \"#utility.yul\":296:319   */\n      sub\n        /* \"#utility.yul\":292:324   */\n      slt\n        /* \"#utility.yul\":289:341   */\n      iszero\n      tag_69\n      jumpi\n        /* \"#utility.yul\":337:338   */\n      0x00\n        /* \"#utility.yul\":334:335   */\n      0x00\n        /* \"#utility.yul\":327:339   */\n      revert\n        /* \"#utility.yul\":289:341   */\n    tag_69:\n        /* \"#utility.yul\":360:389   */\n      tag_70\n        /* \"#utility.yul\":379:388   */\n      dup4\n        /* \"#utility.yul\":360:389   */\n      tag_64\n      jump\t// in\n    tag_70:\n        /* \"#utility.yul\":350:389   */\n      swap5\n        /* \"#utility.yul\":436:438   */\n      0x20\n        /* \"#utility.yul\":421:439   */\n      swap4\n      swap1\n      swap4\n      add\n        /* \"#utility.yul\":408:440   */\n      calldataload\n      swap4\n      pop\n      pop\n      pop\n        /* \"#utility.yul\":192:446   */\n      jump\t// out\n        /* \"#utility.yul\":451:637   */\n    tag_13:\n        /* \"#utility.yul\":510:516   */\n      0x00\n        /* \"#utility.yul\":563:565   */\n      0x20\n        /* \"#utility.yul\":551:560   */\n      dup3\n        /* \"#utility.yul\":542:549   */\n      dup5\n        /* \"#utility.yul\":538:561   */\n      sub\n        /* \"#utility.yul\":534:566   */\n      slt\n        /* \"#utility.yul\":531:583   */\n      iszero\n      tag_72\n      jumpi\n        /* \"#utility.yul\":579:580   */\n      0x00\n        /* \"#utility.yul\":576:577   */\n      0x00\n        /* \"#utility.yul\":569:581   */\n      revert\n        /* \"#utility.yul\":531:583   */\n    tag_72:\n        /* \"#utility.yul\":602:631   */\n      tag_73\n        /* \"#utility.yul\":621:630   */\n      dup3\n        /* \"#utility.yul\":602:631   */\n      tag_64\n      jump\t// in\n    tag_73:\n        /* \"#utility.yul\":592:631   */\n      swap4\n        /* \"#utility.yul\":451:637   */\n      swap3\n      pop\n      pop\n      pop\n      jump\t// out\n        /* \"#utility.yul\":642:1447   */\n    tag_16:\n        /* \"#utility.yul\":870:872   */\n      0x20\n        /* \"#utility.yul\":882:903   */\n      dup1\n      dup3\n      mstore\n        /* \"#utility.yul\":952:965   */\n      dup3\n      mload\n        /* \"#utility.yul\":855:873   */\n      dup3\n      dup3\n      add\n        /* \"#utility.yul\":974:996   */\n      dup2\n      swap1\n      mstore\n        /* \"#utility.yul\":822:826   */\n      0x00\n      swap2\n        /* \"#utility.yul\":1053:1068   */\n      dup5\n      add\n      swap1\n        /* \"#utility.yul\":1027:1029   */\n      0x40\n        /* \"#utility.yul\":1012:1030   */\n      dup5\n      add\n      swap1\n        /* \"#utility.yul\":822:826   */\n      dup4\n        /* \"#utility.yul\":1096:1421   */\n    tag_75:\n        /* \"#utility.yul\":1110:1116   */\n      dup2\n        /* \"#utility.yul\":1107:1108   */\n      dup2\n        /* \"#utility.yul\":1104:1117   */\n      lt\n        /* \"#utility.yul\":1096:1421   */\n      iszero\n      tag_77\n      jumpi\n        /* \"#utility.yul\":1175:1181   */\n      dup4\n        /* \"#utility.yul\":1169:1182   */\n      mload\n        /* \"#utility.yul\":1213:1215   */\n      dup1\n        /* \"#utility.yul\":1207:1216   */\n      mload\n        /* \"#utility.yul\":1202:1205   */\n      dup5\n        /* \"#utility.yul\":1195:1217   */\n      mstore\n        /* \"#utility.yul\":1265:1267   */\n      0x20\n        /* \"#utility.yul\":1261:1263   */\n      dup2\n        /* \"#utility.yul\":1257:1268   */\n      add\n        /* \"#utility.yul\":1251:1269   */\n      mload\n        /* \"#utility.yul\":1246:1248   */\n      0x20\n        /* \"#utility.yul\":1241:1244   */\n      dup6\n        /* \"#utility.yul\":1237:1249   */\n      add\n        /* \"#utility.yul\":1230:1270   */\n      mstore\n        /* \"#utility.yul\":1332:1334   */\n      0x40\n        /* \"#utility.yul\":1328:1330   */\n      dup2\n        /* \"#utility.yul\":1324:1335   */\n      add\n        /* \"#utility.yul\":1318:1336   */\n      mload\n        /* \"#utility.yul\":1311:1337   */\n      iszero\n        /* \"#utility.yul\":1304:1338   */\n      iszero\n        /* \"#utility.yul\":1299:1301   */\n      0x40\n        /* \"#utility.yul\":1294:1297   */\n      dup6\n        /* \"#utility.yul\":1290:1302   */\n      add\n        /* \"#utility.yul\":1283:1339   */\n      mstore\n      pop\n        /* \"#utility.yul\":1368:1372   */\n      0x60\n        /* \"#utility.yul\":1363:1366   */\n      dup4\n        /* \"#utility.yul\":1359:1373   */\n      add\n        /* \"#utility.yul\":1352:1373   */\n      swap3\n      pop\n        /* \"#utility.yul\":1408:1410   */\n      0x20\n        /* \"#utility.yul\":1400:1406   */\n      dup5\n        /* \"#utility.yul\":1396:1411   */\n      add\n        /* \"#utility.yul\":1386:1411   */\n      swap4\n      pop\n        /* \"#utility.yul\":1132:1133   */\n      0x01\n        /* \"#utility.yul\":1129:1130   */\n      dup2\n        /* \"#utility.yul\":1125:1134   */\n      add\n        /* \"#utility.yul\":1120:1134   */\n      swap1\n      pop\n        /* \"#utility.yul\":1096:1421   */\n      jump(tag_75)\n    tag_77:\n      pop\n        /* \"#utility.yul\":1438:1441   */\n      swap1\n      swap6\n        /* \"#utility.yul\":642:1447   */\n      swap5\n      pop\n      pop\n      pop\n      pop\n      pop\n      jump\t// out\n        /* \"#utility.yul\":3198:3325   */\n    tag_51:\n        /* \"#utility.yul\":3259:3269   */\n      0x4e487b71\n        /* \"#utility.yul\":3254:3257   */\n      0xe0\n        /* \"#utility.yul\":3250:3270   */\n      shl\n        /* \"#utility.yul\":3247:3248   */\n      0x00\n        /* \"#utility.yul\":3240:3271   */\n      mstore\n        /* \"#utility.yul\":3290:3294   */\n      0x32\n        /* \"#utility.yul\":3287:3288   */\n      0x04\n        /* \"#utility.yul\":3280:3295   */\n      mstore\n        /* \"#utility.yul\":3314:3318   */\n      0x24\n        /* \"#utility.yul\":3311:3312   */\n      0x00\n        /* \"#utility.yul\":3304:3319   */\n      revert\n        /* \"#utility.yul\":3330:3552   */\n    tag_56:\n        /* \"#utility.yul\":3395:3404   */\n      dup1\n      dup3\n      add\n        /* \"#utility.yul\":3416:3426   */\n      dup1\n      dup3\n      gt\n        /* \"#utility.yul\":3413:3546   */\n      iszero\n      tag_85\n      jumpi\n        /* \"#utility.yul\":3468:3478   */\n      0x4e487b71\n        /* \"#utility.yul\":3463:3466   */\n      0xe0\n        /* \"#utility.yul\":3459:3479   */\n      shl\n        /* \"#utility.yul\":3456:3457   */\n      0x00\n        /* \"#utility.yul\":3449:3480   */\n      mstore\n        /* \"#utility.yul\":3503:3507   */\n      0x11\n        /* \"#utility.yul\":3500:3501   */\n      0x04\n        /* \"#utility.yul\":3493:3508   */\n      mstore\n        /* \"#utility.yul\":3531:3535   */\n      0x24\n        /* \"#utility.yul\":3528:3529   */\n      0x00\n        /* \"#utility.yul\":3521:3536   */\n      revert\n        /* \"#utility.yul\":3413:3546   */\n    tag_85:\n        /* \"#utility.yul\":3330:3552   */\n      swap3\n      swap2\n      pop\n      pop\n      jump\t// out\n\n    auxdata: 0xa264697066735822122025bc68e44d419a86c8248cfdad961fbcc7549b5c775c3c324ee51e9610ce35ea64736f6c634300081e0033\n}\n",
				"bytecode": {
					"linkReferences": {},
					"object": "6080604052348015600e575f5ffd5b506105d38061001c5f395ff3fe60806040526004361061003e575f3560e01c80630b1759df14610042578063ad96766314610057578063b63b65d61461008c578063e30c3920146100c8575b5f5ffd5b6100556100503660046104bc565b6100dc565b005b348015610062575f5ffd5b506100766100713660046104e4565b61028d565b6040516100839190610504565b60405180910390f35b348015610097575f5ffd5b506100ab6100a63660046104bc565b61031d565b604080519384526020840192909252151590820152606001610083565b3480156100d3575f5ffd5b5061005561035d565b5f341161013b5760405162461bcd60e51b815260206004820152602260248201527f4769667420616d6f756e74206d7573742062652067726561746572207468616e604482015261020360f41b60648201526084015b60405180910390fd5b6001600160a01b03821661018d5760405162461bcd60e51b8152602060048201526019602482015278496e76616c696420726563697069656e74206164647265737360381b6044820152606401610132565b4281116101e65760405162461bcd60e51b815260206004820152602160248201527f556e6c6f636b2074696d65206d75737420626520696e207468652066757475726044820152606560f81b6064820152608401610132565b6001600160a01b0382165f8181526020818152604080832081516060810183523480825281850188815282850187815284546001808201875595895297879020935160039098029093019687555192860192909255516002909401805460ff191694151594909417909355805192835290820184905233917f2e9b96c8a0db9b6bf4343a8b9f1b44eab566c981df34b57ab3fc844331643232910160405180910390a35050565b6001600160a01b0381165f90815260208181526040808320805482518185028101850190935280835260609492939192909184015b82821015610312575f8481526020908190206040805160608101825260038602909201805483526001808201548486015260029091015460ff1615159183019190915290835290920191016102c2565b505050509050919050565b5f602052815f5260405f208181548110610335575f80fd5b5f91825260209091206003909102018054600182015460029092015490935090915060ff1683565b335f90815260208190526040812090805b82548110156103e1575f83828154811061038a5761038a610564565b5f9182526020909120600390910201600281015490915060ff161580156103b5575080600101544210155b156103d85780546103c69084610578565b60028201805460ff1916600117905592505b5060010161036e565b505f811161043d5760405162461bcd60e51b8152602060048201526024808201527f4e6f20756e6c6f636b656420676966747320617661696c61626c6520746f20636044820152636c61696d60e01b6064820152608401610132565b604051339082156108fc029083905f818181858888f19350505050158015610467573d5f5f3e3d5ffd5b5060405181815233907f63470d7f30c22aa66a80557958389b03c1a5d7d61f31b9bd0642097d2aae3a9a9060200160405180910390a25050565b80356001600160a01b03811681146104b7575f5ffd5b919050565b5f5f604083850312156104cd575f5ffd5b6104d6836104a1565b946020939093013593505050565b5f602082840312156104f4575f5ffd5b6104fd826104a1565b9392505050565b602080825282518282018190525f918401906040840190835b8181101561055957835180518452602081015160208501526040810151151560408501525060608301925060208401935060018101905061051d565b509095945050505050565b634e487b7160e01b5f52603260045260245ffd5b8082018082111561059757634e487b7160e01b5f52601160045260245ffd5b9291505056fea264697066735822122025bc68e44d419a86c8248cfdad961fbcc7549b5c775c3c324ee51e9610ce35ea64736f6c634300081e0033",
					"opcodes": "PUSH1 0x80 PUSH1 0x40 MSTORE CALLVALUE DUP1 ISZERO PUSH1 0xE JUMPI PUSH0 PUSH0 REVERT JUMPDEST POP PUSH2 0x5D3 DUP1 PUSH2 0x1C PUSH0 CODECOPY PUSH0 RETURN INVALID PUSH1 0x80 PUSH1 0x40 MSTORE PUSH1 0x4 CALLDATASIZE LT PUSH2 0x3E JUMPI PUSH0 CALLDATALOAD PUSH1 0xE0 SHR DUP1 PUSH4 0xB1759DF EQ PUSH2 0x42 JUMPI DUP1 PUSH4 0xAD967663 EQ PUSH2 0x57 JUMPI DUP1 PUSH4 0xB63B65D6 EQ PUSH2 0x8C JUMPI DUP1 PUSH4 0xE30C3920 EQ PUSH2 0xC8 JUMPI JUMPDEST PUSH0 PUSH0 REVERT JUMPDEST PUSH2 0x55 PUSH2 0x50 CALLDATASIZE PUSH1 0x4 PUSH2 0x4BC JUMP JUMPDEST PUSH2 0xDC JUMP JUMPDEST STOP JUMPDEST CALLVALUE DUP1 ISZERO PUSH2 0x62 JUMPI PUSH0 PUSH0 REVERT JUMPDEST POP PUSH2 0x76 PUSH2 0x71 CALLDATASIZE PUSH1 0x4 PUSH2 0x4E4 JUMP JUMPDEST PUSH2 0x28D JUMP JUMPDEST PUSH1 0x40 MLOAD PUSH2 0x83 SWAP2 SWAP1 PUSH2 0x504 JUMP JUMPDEST PUSH1 0x40 MLOAD DUP1 SWAP2 SUB SWAP1 RETURN JUMPDEST CALLVALUE DUP1 ISZERO PUSH2 0x97 JUMPI PUSH0 PUSH0 REVERT JUMPDEST POP PUSH2 0xAB PUSH2 0xA6 CALLDATASIZE PUSH1 0x4 PUSH2 0x4BC JUMP JUMPDEST PUSH2 0x31D JUMP JUMPDEST PUSH1 0x40 DUP1 MLOAD SWAP4 DUP5 MSTORE PUSH1 0x20 DUP5 ADD SWAP3 SWAP1 SWAP3 MSTORE ISZERO ISZERO SWAP1 DUP3 ADD MSTORE PUSH1 0x60 ADD PUSH2 0x83 JUMP JUMPDEST CALLVALUE DUP1 ISZERO PUSH2 0xD3 JUMPI PUSH0 PUSH0 REVERT JUMPDEST POP PUSH2 0x55 PUSH2 0x35D JUMP JUMPDEST PUSH0 CALLVALUE GT PUSH2 0x13B JUMPI PUSH1 0x40 MLOAD PUSH3 0x461BCD PUSH1 0xE5 SHL DUP2 MSTORE PUSH1 0x20 PUSH1 0x4 DUP3 ADD MSTORE PUSH1 0x22 PUSH1 0x24 DUP3 ADD MSTORE PUSH32 0x4769667420616D6F756E74206D7573742062652067726561746572207468616E PUSH1 0x44 DUP3 ADD MSTORE PUSH2 0x203 PUSH1 0xF4 SHL PUSH1 0x64 DUP3 ADD MSTORE PUSH1 0x84 ADD JUMPDEST PUSH1 0x40 MLOAD DUP1 SWAP2 SUB SWAP1 REVERT JUMPDEST PUSH1 0x1 PUSH1 0x1 PUSH1 0xA0 SHL SUB DUP3 AND PUSH2 0x18D JUMPI PUSH1 0x40 MLOAD PUSH3 0x461BCD PUSH1 0xE5 SHL DUP2 MSTORE PUSH1 0x20 PUSH1 0x4 DUP3 ADD MSTORE PUSH1 0x19 PUSH1 0x24 DUP3 ADD MSTORE PUSH25 0x496E76616C696420726563697069656E742061646472657373 PUSH1 0x38 SHL PUSH1 0x44 DUP3 ADD MSTORE PUSH1 0x64 ADD PUSH2 0x132 JUMP JUMPDEST TIMESTAMP DUP2 GT PUSH2 0x1E6 JUMPI PUSH1 0x40 MLOAD PUSH3 0x461BCD PUSH1 0xE5 SHL DUP2 MSTORE PUSH1 0x20 PUSH1 0x4 DUP3 ADD MSTORE PUSH1 0x21 PUSH1 0x24 DUP3 ADD MSTORE PUSH32 0x556E6C6F636B2074696D65206D75737420626520696E20746865206675747572 PUSH1 0x44 DUP3 ADD MSTORE PUSH1 0x65 PUSH1 0xF8 SHL PUSH1 0x64 DUP3 ADD MSTORE PUSH1 0x84 ADD PUSH2 0x132 JUMP JUMPDEST PUSH1 0x1 PUSH1 0x1 PUSH1 0xA0 SHL SUB DUP3 AND PUSH0 DUP2 DUP2 MSTORE PUSH1 0x20 DUP2 DUP2 MSTORE PUSH1 0x40 DUP1 DUP4 KECCAK256 DUP2 MLOAD PUSH1 0x60 DUP2 ADD DUP4 MSTORE CALLVALUE DUP1 DUP3 MSTORE DUP2 DUP6 ADD DUP9 DUP2 MSTORE DUP3 DUP6 ADD DUP8 DUP2 MSTORE DUP5 SLOAD PUSH1 0x1 DUP1 DUP3 ADD DUP8 SSTORE SWAP6 DUP10 MSTORE SWAP8 DUP8 SWAP1 KECCAK256 SWAP4 MLOAD PUSH1 0x3 SWAP1 SWAP9 MUL SWAP1 SWAP4 ADD SWAP7 DUP8 SSTORE MLOAD SWAP3 DUP7 ADD SWAP3 SWAP1 SWAP3 SSTORE MLOAD PUSH1 0x2 SWAP1 SWAP5 ADD DUP1 SLOAD PUSH1 0xFF NOT AND SWAP5 ISZERO ISZERO SWAP5 SWAP1 SWAP5 OR SWAP1 SWAP4 SSTORE DUP1 MLOAD SWAP3 DUP4 MSTORE SWAP1 DUP3 ADD DUP5 SWAP1 MSTORE CALLER SWAP2 PUSH32 0x2E9B96C8A0DB9B6BF4343A8B9F1B44EAB566C981DF34B57AB3FC844331643232 SWAP2 ADD PUSH1 0x40 MLOAD DUP1 SWAP2 SUB SWAP1 LOG3 POP POP JUMP JUMPDEST PUSH1 0x1 PUSH1 0x1 PUSH1 0xA0 SHL SUB DUP2 AND PUSH0 SWAP1 DUP2 MSTORE PUSH1 0x20 DUP2 DUP2 MSTORE PUSH1 0x40 DUP1 DUP4 KECCAK256 DUP1 SLOAD DUP3 MLOAD DUP2 DUP6 MUL DUP2 ADD DUP6 ADD SWAP1 SWAP4 MSTORE DUP1 DUP4 MSTORE PUSH1 0x60 SWAP5 SWAP3 SWAP4 SWAP2 SWAP3 SWAP1 SWAP2 DUP5 ADD JUMPDEST DUP3 DUP3 LT ISZERO PUSH2 0x312 JUMPI PUSH0 DUP5 DUP2 MSTORE PUSH1 0x20 SWAP1 DUP2 SWAP1 KECCAK256 PUSH1 0x40 DUP1 MLOAD PUSH1 0x60 DUP2 ADD DUP3 MSTORE PUSH1 0x3 DUP7 MUL SWAP1 SWAP3 ADD DUP1 SLOAD DUP4 MSTORE PUSH1 0x1 DUP1 DUP3 ADD SLOAD DUP5 DUP7 ADD MSTORE PUSH1 0x2 SWAP1 SWAP2 ADD SLOAD PUSH1 0xFF AND ISZERO ISZERO SWAP2 DUP4 ADD SWAP2 SWAP1 SWAP2 MSTORE SWAP1 DUP4 MSTORE SWAP1 SWAP3 ADD SWAP2 ADD PUSH2 0x2C2 JUMP JUMPDEST POP POP POP POP SWAP1 POP SWAP2 SWAP1 POP JUMP JUMPDEST PUSH0 PUSH1 0x20 MSTORE DUP2 PUSH0 MSTORE PUSH1 0x40 PUSH0 KECCAK256 DUP2 DUP2 SLOAD DUP2 LT PUSH2 0x335 JUMPI PUSH0 DUP1 REVERT JUMPDEST PUSH0 SWAP2 DUP3 MSTORE PUSH1 0x20 SWAP1 SWAP2 KECCAK256 PUSH1 0x3 SWAP1 SWAP2 MUL ADD DUP1 SLOAD PUSH1 0x1 DUP3 ADD SLOAD PUSH1 0x2 SWAP1 SWAP3 ADD SLOAD SWAP1 SWAP4 POP SWAP1 SWAP2 POP PUSH1 0xFF AND DUP4 JUMP JUMPDEST CALLER PUSH0 SWAP1 DUP2 MSTORE PUSH1 0x20 DUP2 SWAP1 MSTORE PUSH1 0x40 DUP2 KECCAK256 SWAP1 DUP1 JUMPDEST DUP3 SLOAD DUP2 LT ISZERO PUSH2 0x3E1 JUMPI PUSH0 DUP4 DUP3 DUP2 SLOAD DUP2 LT PUSH2 0x38A JUMPI PUSH2 0x38A PUSH2 0x564 JUMP JUMPDEST PUSH0 SWAP2 DUP3 MSTORE PUSH1 0x20 SWAP1 SWAP2 KECCAK256 PUSH1 0x3 SWAP1 SWAP2 MUL ADD PUSH1 0x2 DUP2 ADD SLOAD SWAP1 SWAP2 POP PUSH1 0xFF AND ISZERO DUP1 ISZERO PUSH2 0x3B5 JUMPI POP DUP1 PUSH1 0x1 ADD SLOAD TIMESTAMP LT ISZERO JUMPDEST ISZERO PUSH2 0x3D8 JUMPI DUP1 SLOAD PUSH2 0x3C6 SWAP1 DUP5 PUSH2 0x578 JUMP JUMPDEST PUSH1 0x2 DUP3 ADD DUP1 SLOAD PUSH1 0xFF NOT AND PUSH1 0x1 OR SWAP1 SSTORE SWAP3 POP JUMPDEST POP PUSH1 0x1 ADD PUSH2 0x36E JUMP JUMPDEST POP PUSH0 DUP2 GT PUSH2 0x43D JUMPI PUSH1 0x40 MLOAD PUSH3 0x461BCD PUSH1 0xE5 SHL DUP2 MSTORE PUSH1 0x20 PUSH1 0x4 DUP3 ADD MSTORE PUSH1 0x24 DUP1 DUP3 ADD MSTORE PUSH32 0x4E6F20756E6C6F636B656420676966747320617661696C61626C6520746F2063 PUSH1 0x44 DUP3 ADD MSTORE PUSH4 0x6C61696D PUSH1 0xE0 SHL PUSH1 0x64 DUP3 ADD MSTORE PUSH1 0x84 ADD PUSH2 0x132 JUMP JUMPDEST PUSH1 0x40 MLOAD CALLER SWAP1 DUP3 ISZERO PUSH2 0x8FC MUL SWAP1 DUP4 SWAP1 PUSH0 DUP2 DUP2 DUP2 DUP6 DUP9 DUP9 CALL SWAP4 POP POP POP POP ISZERO DUP1 ISZERO PUSH2 0x467 JUMPI RETURNDATASIZE PUSH0 PUSH0 RETURNDATACOPY RETURNDATASIZE PUSH0 REVERT JUMPDEST POP PUSH1 0x40 MLOAD DUP2 DUP2 MSTORE CALLER SWAP1 PUSH32 0x63470D7F30C22AA66A80557958389B03C1A5D7D61F31B9BD0642097D2AAE3A9A SWAP1 PUSH1 0x20 ADD PUSH1 0x40 MLOAD DUP1 SWAP2 SUB SWAP1 LOG2 POP POP JUMP JUMPDEST DUP1 CALLDATALOAD PUSH1 0x1 PUSH1 0x1 PUSH1 0xA0 SHL SUB DUP2 AND DUP2 EQ PUSH2 0x4B7 JUMPI PUSH0 PUSH0 REVERT JUMPDEST SWAP2 SWAP1 POP JUMP JUMPDEST PUSH0 PUSH0 PUSH1 0x40 DUP4 DUP6 SUB SLT ISZERO PUSH2 0x4CD JUMPI PUSH0 PUSH0 REVERT JUMPDEST PUSH2 0x4D6 DUP4 PUSH2 0x4A1 JUMP JUMPDEST SWAP5 PUSH1 0x20 SWAP4 SWAP1 SWAP4 ADD CALLDATALOAD SWAP4 POP POP POP JUMP JUMPDEST PUSH0 PUSH1 0x20 DUP3 DUP5 SUB SLT ISZERO PUSH2 0x4F4 JUMPI PUSH0 PUSH0 REVERT JUMPDEST PUSH2 0x4FD DUP3 PUSH2 0x4A1 JUMP JUMPDEST SWAP4 SWAP3 POP POP POP JUMP JUMPDEST PUSH1 0x20 DUP1 DUP3 MSTORE DUP3 MLOAD DUP3 DUP3 ADD DUP2 SWAP1 MSTORE PUSH0 SWAP2 DUP5 ADD SWAP1 PUSH1 0x40 DUP5 ADD SWAP1 DUP4 JUMPDEST DUP2 DUP2 LT ISZERO PUSH2 0x559 JUMPI DUP4 MLOAD DUP1 MLOAD DUP5 MSTORE PUSH1 0x20 DUP2 ADD MLOAD PUSH1 0x20 DUP6 ADD MSTORE PUSH1 0x40 DUP2 ADD MLOAD ISZERO ISZERO PUSH1 0x40 DUP6 ADD MSTORE POP PUSH1 0x60 DUP4 ADD SWAP3 POP PUSH1 0x20 DUP5 ADD SWAP4 POP PUSH1 0x1 DUP2 ADD SWAP1 POP PUSH2 0x51D JUMP JUMPDEST POP SWAP1 SWAP6 SWAP5 POP POP POP POP POP JUMP JUMPDEST PUSH4 0x4E487B71 PUSH1 0xE0 SHL PUSH0 MSTORE PUSH1 0x32 PUSH1 0x4 MSTORE PUSH1 0x24 PUSH0 REVERT JUMPDEST DUP1 DUP3 ADD DUP1 DUP3 GT ISZERO PUSH2 0x597 JUMPI PUSH4 0x4E487B71 PUSH1 0xE0 SHL PUSH0 MSTORE PUSH1 0x11 PUSH1 0x4 MSTORE PUSH1 0x24 PUSH0 REVERT JUMPDEST SWAP3 SWAP2 POP POP JUMP INVALID LOG2 PUSH5 0x6970667358 0x22 SLT KECCAK256 0x25 0xBC PUSH9 0xE44D419A86C8248CFD 0xAD SWAP7 0x1F 0xBC 0xC7 SLOAD SWAP12 TLOAD PUSH24 0x5C3C324EE51E9610CE35EA64736F6C634300081E00330000 "
				},
				"gasEstimates": {
					"creation": {
						"codeDepositCost": "298200",
						"executionCost": "335",
						"totalCost": "298535"
					},
					"external": {
						"claimGifts()": "infinite",
						"createGift(address,uint256)": "95396",
						"getPendingGifts(address)": "infinite",
						"gifts(address,uint256)": "9058"
					}
				},
				"methodIdentifiers": {
					"claimGifts()": "e30c3920",
					"createGift(address,uint256)": "0b1759df",
					"getPendingGifts(address)": "ad967663",
					"gifts(address,uint256)": "b63b65d6"
				}
			},
			"storageLayout": {
				"storage": [
					{
						"astId": 14,
						"contract": "TimeLockedGiftVault.sol:TimeLockedGiftVault",
						"label": "gifts",
						"offset": 0,
						"slot": "0",
						"type": "t_mapping(t_address,t_array(t_struct(Gift)8_storage)dyn_storage)"
					}
				],
				"types": {
					"t_address": {
						"encoding": "inplace",
						"label": "address",
						"numberOfBytes": "20"
					},
					"t_array(t_struct(Gift)8_storage)dyn_storage": {
						"base": "t_struct(Gift)8_storage",
						"encoding": "dynamic_array",
						"label": "struct TimeLockedGiftVault.Gift[]",
						"numberOfBytes": "32"
					},
					"t_bool": {
						"encoding": "inplace",
						"label": "bool",
						"numberOfBytes": "1"
					},
					"t_mapping(t_address,t_array(t_struct(Gift)8_storage)dyn_storage)": {
						"encoding": "mapping",
						"key": "t_address",
						"label": "mapping(address => struct TimeLockedGiftVault.Gift[])",
						"numberOfBytes": "32",
						"value": "t_array(t_struct(Gift)8_storage)dyn_storage"
					},
					"t_struct(Gift)8_storage": {
						"encoding": "inplace",
						"label": "struct TimeLockedGiftVault.Gift",
						"members": [
							{
								"astId": 3,
								"contract": "TimeLockedGiftVault.sol:TimeLockedGiftVault",
								"label": "amount",
								"offset": 0,
								"slot": "0",
								"type": "t_uint256"
							},
							{
								"astId": 5,
								"contract": "TimeLockedGiftVault.sol:TimeLockedGiftVault",
								"label": "unlockTimestamp",
								"offset": 0,
								"slot": "1",
								"type": "t_uint256"
							},
							{
								"astId": 7,
								"contract": "TimeLockedGiftVault.sol:TimeLockedGiftVault",
								"label": "claimed",
								"offset": 0,
								"slot": "2",
								"type": "t_bool"
							}
						],
						"numberOfBytes": "96"
					},
					"t_uint256": {
						"encoding": "inplace",
						"label": "uint256",
						"numberOfBytes": "32"
					}
				}
			},
			"userdoc": {
				"kind": "user",
				"methods": {},
				"version": 1
			}
		}
	}
}